:1000000010C01FC01EC01DC01CC01BC01AC019C01C
:1000100018C017C016C015C014C013C012C011C03C
:1000200010C011241FBECFE5D1E0DEBFCDBF20E060
:10003000A0E6B0E001C01D92A336B207E1F702D0FE
:10004000EDC0DECF80E886BD16BCDB98D39ADA9887
:10005000D29A1092620080916200853008F046C00A
:10006000DB98DA9A10926100109260008091600033
:100070009091610080329E4498F4DA9A28E02A95A3
:10008000F1F7DA988DE08A95F1F700008091600031
:100090009091610001969093610080936000E6CF9B
:1000A000DA98DB9A109261001092600080916000F3
:1000B0009091610080329E4498F4DB9A88E08A95A2
:1000C000F1F7DB982DE02A95F1F7000080916000B0
:1000D0009091610001969093610080936000E6CF5B
:1000E000809162008F5F80936200B5CF10926200B2
:1000F00080916200853008F044C0DB98DA9A109253
:1001000061001092600080916000909161008032E7
:100110009E4490F4DA9A88E08A95F1F7DA9828E01C
:100120002A95F1F78091600090916100019690937B
:10013000610080936000E7CFDA98DB9A109261004B
:1001400010926000809160009091610080329E4426
:1001500090F4DB9A88E08A95F1F7DB9828E02A95FD
:10016000F1F7809160009091610001969093610099
:1001700080936000E7CF809162008F5F8093620080
:10018000B7CF1092620080916200853008F061CF95
:10019000DB98DA9A10926100109260008091600002
:1001A0009091610080329E4498F4DA9A88E08A95B2
:1001B000F1F7DA9822E02A95F1F700C0809160000B
:1001C0009091610001969093610080936000E6CF6A
:1001D000DA98DB9A109261001092600080916000C2
:1001E0009091610080329E4498F4DB9A88E08A9571
:1001F000F1F7DB9822E02A95F1F700C080916000CA
:100200009091610001969093610080936000E6CF29
:10021000809162008F5F80936200B5CFF894FFCF2A
:00000001FF
