:100000000EC01DC01CC01BC01AC019C018C017C02C
:1000100016C015C014C013C012C011C010C01124E6
:100020001FBECFE5D1E0DEBFCDBF20E0A0E6B0E04F
:1000300001C01D92AA36B207E1F702D0A2C0E0CFFC
:1000400080E886BD16BC83E38ABD81E083BFC1988A
:10005000B99A81E090E09093690080936800E0E0B5
:10006000F0E846E9CFEF2091680030916900B901CE
:10007000672F7727669562277327617077277093BC
:10008000670060936600762F6627770F770F3695A7
:100090002795622B732B7093690060936800CF01E2
:1000A0005CD07093650060936400109263001092BE
:1000B0006200209162003091630080916400909111
:1000C00065002817390778F648BD10926100109234
:1000D00060002091600030916100809168009091F3
:1000E00069002817390778F485E08A95F1F7000050
:1000F00020916000309161002F5F3F4F309361008D
:1001000020936000E6CFC8BD10926100109260009D
:1001100020916000309161008091680090916900A9
:100120002817390778F485E08A95F1F700002091C7
:100130006000309161002F5F3F4F3093610020934A
:100140006000E6CF20916200309163002F5F3F4F47
:100150003093630020936200ACCFAA1BBB1B51E11C
:1001600007C0AA1FBB1FA617B70710F0A61BB70B27
:10017000881F991F5A95A9F780959095BC01CD01CC
:060180000895F894FFCF82
:00000001FF
