:1000000010C01FC01EC01DC01CC01BC01AC019C01C
:1000100018C017C016C015C014C013C012C011C03C
:1000200010C011241FBECFE5D1E0DEBFCDBF20E060
:10003000A0E6B0E001C01D92A336B207E1F76ED092
:10004000C9C0DECF1092620080916200883C90F4BB
:10005000DA9AD89A85E88A95F1F70000DA98D89864
:100060008AE18A95F1F700C0809162008F5F8093EA
:100070006200EACF08951092620080916200883C8D
:1000800090F4DA9AD99A85E88A95F1F70000DA981F
:10009000D9988AE18A95F1F700C0809162008F5F5C
:1000A00080936200EACF089510926200809162000E
:1000B000883C90F4DB9AD89A85E88A95F1F700009D
:1000C000DB98D8988AE18A95F1F700C080916200A8
:1000D0008F5F80936200EACF089510926200809152
:1000E0006200883C90F4DB9AD99A85E88A95F1F70A
:1000F0000000DB98D9988AE18A95F1F700C08091D9
:1001000062008F5F80936200EACF08959BDFB3DFC8
:10011000E4DFCACFC9DFE1DFAEDF94CF80E886BD80
:1001200016BCD898D09AD998D19ADA98D29ADB98F6
:10013000D39ACAE010926100809161008A3010F574
:10014000109260009091600080916100981738F4DF
:10015000DDDF809160008F5F80936000F3CF1092AD
:1001600060008091610090916000981738F4D2DFB0
:10017000809160008F5F80936000F3CF8F5F8093EA
:100180006100DACFC093610080916100882391F211
:10019000109260009091600080916100981738F48F
:1001A000B5DF809160008F5F80936000F3CF109285
:1001B00060008091610090916000981738F4AADF88
:1001C000809160008F5F80936000F3CF81508093B7
:0801D0006100DACFF894FFCFC3
:00000001FF
