:100000000EC01DC01CC01BC01AC019C018C017C02C
:1000100016C015C014C013C012C011C010C01124E6
:100020001FBECFE5D1E0DEBFCDBF20E0A0E6B0E04F
:1000300001C01D92A636B207E1F788D02AC1E0CFF1
:10004000FC019081862F809598239083ABECB0E0E3
:100050001197F1F700C00000908140FF02C0962B7D
:1000600001C098239083ABECB0E01197F1F700C08A
:100070000000908141FF02C0962B01C0982390831D
:10008000ABECB0E01197F1F700C00000908142FFA7
:1000900002C0962B01C098239083ABECB0E011977F
:1000A000F1F700C00000908143FF02C0962B01C011
:1000B00098239083ABECB0E01197F1F700C00000FB
:1000C000908144FF02C0962B01C098239083ABEC33
:1000D000B0E01197F1F700C00000908145FF02C029
:1000E000962B01C098239083ABECB0E01197F1F709
:1000F00000C00000908146FF02C0962B01C09823EB
:100100009083ABECB0E01197F1F700C0000047FF1F
:1001100004C08081862B808303C0908198239083C4
:100120008BEC90E00197F1F700C000008081862BF6
:100130008083ABECB0E01197F1F700C000008BECCE
:1001400090E00197F1F700C00000089580E886BDB7
:1001500016BCC29ABA9A82E087B987E886B910922B
:100160006200109263001092640010926500109279
:10017000610010926000809160009091610084366F
:10018000910518F5369A3699FECF24B135B1809194
:10019000620090916300A0916400B0916500820FAD
:1001A000931FA11DB11D8093620090936300A093E3
:1001B0006400B093650080916000909161000196A9
:1001C0009093610080936000D6CF41E064E088E3C3
:1001D00090E036DF8FE19EE40197F1F700C0000068
:1001E00042E064E088E390E02BDF8FE19EE401973A
:1001F000F1F700C0000043E064E088E390E020DF16
:100200008FE19EE40197F1F700C0000044E064E054
:1002100088E390E015DF8FE19EE40197F1F700C0DD
:1002200000004091620064E088E390E009DF8FE124
:100230009EE40197F1F700C00000409162005091E8
:1002400063006091640070916500452F562F672F01
:10025000772764E088E390E0F3DE8FE19EE4019786
:10026000F1F700C00000409162005091630060917E
:10027000640070916500AB016627772764E088E32E
:1002800090E0DEDE8FE19EE40197F1F700C0000010
:0602900066CFF894FFCFD9
:00000001FF
